S00F0000706C61797761762E7372656311
S11300000C94A4170C94B6170C94B6170C94B6174A
S11300100C94B6170C94B6170C94B6170C94B61728
S11300200C94B6170C94B6170C94B6170C94B61718
S11300300C94B6170C94B8170C94B6170C94B61706
S11300400C94B6170C94B6170C94B6170C94B617F8
S11300500C94B6170C94B6170C94B6170C94B617E8
S11300600C94B6170C94B61780858184858483829A
S113007086808084817E807C7E7B7C7B797C797A9F
S11300807A7C7D7E7D807F81828283838385828466
S11300908484828382818181807F7F7D7C7C7E7E5B
S11300A080807E7F7F828181858382838182848236
S11300B08485848482828180807F7D7D7C7A7B7B41
S11300C07B7A7B7C7B7D7E7E7F7F81808282838145
S11300D07F80817E807E7E7C7C7E7B7A7F7D7D7E40
S11300E08081838385858889868A88888A8A8789A6
S11300F08882877E81797D76727970796D7C717B57
S113010075797D7C837E86818A86878A87898587BF
S11301108182817D7D7A7A7678767576797A797D31
S11301207E8180858486888788878B87888888866F
S11301308A898B868B7F897F847A76806D7E6D79C0
S11301406D7A7B6F7F738575897C8487878A888CB9
S1130150868C86878580817B7C76757672717374D4
S11301607279777B7B838383898989898B8B878A5F
S113017088868686848485878383878384847F8333
S11301807E7C7B757A7577757379747C787D7C83D6
S1130190848387878A858E88888885837E817C7816
S11301A075767271767276767A797D8181858588A5
S11301B0868A8889878787868384828585828780E3
S11301C08986868A8886868580807F76786F746F34
S11301D0756F7178747D7983808788868B8B8C8B1F
S11301E08A8786857F807B79777574737572767755
S11301F0787A7F7E82838586878A878888878683C4
S113020085857F86848185858385878384878883A4
S11302108682817E7E787A77717574767479787C3B
S11302207E8183858687878888878483827F7D7C97
S113023079787875767778797B7D7D8081828384FF
S1130240848585868585858484858282848383816B
S11302508584868685878787848485817E7D7B796E
S1130260777678757778797B7D7D808183838383C6
S11302708483838282807F807E7E7D7D7E7D7D7E81
S11302807E7F7F7F7F7F7F7F8080807F8080818073
S11302908080818182828283838484848384838234
S11302A082828081808080807F808181828282823C
S11302B082828180807F7E7E7D7D7C7D7B7B7B7B5B
S11302C07B7B7B7C7D7D8081828383848384848427
S11302D082828181807F7E7E7E7D7E7D7F7E7E7F29
S11302E080808181818181818181818281818281FA
S11302F08383838383828182828181808081807FE2
S11303007E7F7D7E7D7E7E7E7E7E7E7E7F7E808005
S11303108180808080818081817F80818180807FD5
S11303207F7F808180808180807F7F8081808080CA
S113033080808081808181808281818281797C86B4
S113034085807A7C827E7B7E80827F7F7F818281B2
S11303507C847E8383807D808B7B828279867E739E
S1130360837D80887E82818283837F7B857F7C847A
S11303707F81857B858279857F7D7E6B847F80828A
S1130380848A8284828A8475837F7E7B7E877E785A
S11303907C817C797A818478858782827D84887E59
S11303A0838581837B83867E80867C7D857B80813B
S11303B07C877F80847C83827D837E7D817D847C39
S11303C07C81807E837F7F827D80827E837D7E812F
S11303D07B8379797D807E7B807E807F7A82847D39
S11303E07E8086857B7C8B808281899183878992BC
S11303F08B83838D8C838274767B716A687B767839
S11304008083908B8A858A867F777B787473777AEA
S11304107B7F8282878480827D7A74767474777914
S11304207E8385878C8E8D8B8D8C8C8C8C8C8C8D27
S11304308F91908F5D666D72585772758F8C899508
S11304409F93807881776770738788878592979464
S1130450807C7C777465696D7579797C7F81848211
S11304607A82848282828184837F7D858B8B8E9441
S1130470989B9B9896928B8A5A55596261587285BB
S113048093A0948F9590776C606E6B72788499A525
S1130490A1908A86826C5F63657473777B8A8F8987
S11304A07E7E84847E7173808685787A818A868054
S11304B0838A919392898C8E8E86828C8C989A5A98
S11304C05A58766A605A7E92A599868C8F8B705D95
S11304D06874798288889D9E827C72786F6A616E66
S11304E07B8787788390937F70787E7F7F7678860A
S11304F08E7F7B7A888886868A9299999192979F33
S1130500987966525C6868536B8B939E958D8A8943
S11305107A676168787D8A8E9399989183776F70F2
S11305206A6D6F787E7F7E7E81827B75797F83851D
S113053084818383847D7A7F8082848A8B8E949560
S113054093909497939B856F5357626A62708493D8
S1130550A6A28D837F786C63626F7E8E9692958A55
S1130560877E73706B6D717C7D7E7F807F81817BE4
S1130570787D827F7F8282858585807D8181828569
S1130580888790949697979BA1886E565B636D5E5F
S1130590608086AEA18C84847874675F6A80879655
S11305A08D9392898378747274767A7B7F7C7A7661
S11305B07C7C7D7B7D858889847F7E8181817A7F37
S11305C084838587888C939594939C9E8B7B5862B7
S11305D0696F64717E8A9A958880797A746C6D7774
S11305E0838C93898988827E7975787A7C7F7B7BFA
S11305F07A7A777C797E7C81848784827F7F80810C
S1130600807F808486888A858D8C9297959BA1743F
S1130610715F63736E66777D939693818178736C53
S11306206D6E79868E8F888A84817B78757B7C80D9
S1130630817D7F7B797A7C787D7C80828582827ED5
S11306407F7F81807F8082868586868C8F93949439
S1130650999C7B786C65716F6C7E8191938C817FA2
S113066075756970737C848A8C8B8785807A7977B9
S11306707D7C7F7F7D807B767A7D7C7E7B8083849E
S113068082807B7F8182827D7E82848986868C8E35
S113069093918F949581826D6C77726C7C7C868F3C
S11306A08B81817E757571737C818488868984824F
S11306B07C7A7A7D7A7A7D7E7E7C7A7B7D80807D71
S11306C0808282827F7D7D8082807F7F818286841A
S11306D08488898F909091929B81886667796C6FEA
S11306E07377848E9083878076757470797E828325
S11306F0888687837F7D7D7E7B77797A7D7B7C7915
S11307007F82817E818283827E7C7F81827F7C7FE7
S11307108084838082878B8D8C8C9096949C837844
S1130720766A766D69717985888A8583817D767626
S113073075797B7F7F858684838280807D7C7A7CCB
S11307407A7D797C817F8281808384817E7B7D81B7
S113075081807D7E81827E807F8284888B888E8C5E
S1130760919294998383717179696C71778282878C
S1130770828684807A777579787E7A898285808288
S1130780827F817B7A7C7C807C7F7D82817F7F807D
S1130790807E7D7D8082807E7E7E807E7B7C828466
S11307A0858187878B8E888B8C918F8E83837B7BCF
S11307B079737074787D7D7F808483807C7B7D7C7D
S11307C07A7D7B818080807F8180817E7F7F807E37
S11307D07D7E7F827F807D817E7E7E7F83807E7C26
S11307E07E7F7D817C8383828785818985898186DB
S11307F08587858982858584837E7F7D7C7D7B78E2
S11308007D7B7D827D7F7D80817F80807D807D7EFC
S11308107C7B7C7D807B837C817F83867E838081DF
S1130820818281807C897A81867C8E7986947384A6
S11308308285737D798D6F89798A748178916D91C0
S11308406F8A768D6D8B71946E9583898576897B9D
S11308508773867C86797E8181847480777E7B83AE
S113086075827B7E7F808A7488808A7C857580828D
S1130870857B84857B8280976B8988858679827B5A
S11308807A8A8A837E7E996E867082878080878149
S11308908E788A8A7D7E82897980859379827A802E
S11308A0768C7F7B867A868C896A948377817B8039
S11308B0797F7F8B7B7A86857D7E829E8B88808103
S11308C0848481778181837A7B728E776B707B815C
S11308D0858195709270877D857B7B8F7172759A07
S11308E08C75858388747A85717F8F7385837C7D0D
S11308F07F977685758887708E6F8C7F8681758CDF
S11309007281836B887A837D887E78897E8D7B85EE
S11309107679877783877C897B8B707A88859183C6
S11309207D898E6D738788978E717D7D748C808AA6
S1130930898180878E78797C7C79868D768A81829C
S113094077947D8E7A748482899063737B867482B3
S1130950816C888B897D8188867A8491908D7B7562
S11309607A867E90868A7E7F817C7B708488768678
S1130970888D797AAA917E8787708078857E8A7936
S11309807F818A6679839368817985798980927079
S11309907A747D70887E828B7A827679899C7F7462
S11309A08877807E808A898C7C838B8F71816E7A34
S11309B07A82867682859181816D7185728A738F40
S11309C08980767A7E84718E87817798758A648E21
S11309D08C898D748F6B7373679B7F7B96747F5D3B
S11309E09969A2648183899B6F9A65A881867677C9
S11309F0856B937E6A72967087807B6C896B878C1B
S1130A006E7E7A9365767E978B6D80539C67896A38
S1130A10748A698F7D7078848F939A837F6B8C7FBF
S1130A20797F758876967C836F7B7E989683857DA7
S1130A30897A6C906384988969678494756E8C75DF
S1130A407A7E898F768F80AC51A1739A5882907B7D
S1130A507E72867E7B8383718E8678767A89696CD2
S1130A607A8C958785748179966D9C7A72888A9C34
S1130A707E787E956C92788F79946871947273798C
S1130A8071967C757388777C777087669D7D736CAF
S1130A9085718486838282858C9C586D8C7890596C
S1130AA09A83875F8D947A6C5C9867937484758A53
S1130AB0869B9B66858E828C9064708C927A8872F9
S1130AC0906DA0688D6C718D807C79817995907022
S1130AD0726A82956C7273789B927971858C7A7D37
S1130AE0797DA07C8B849C827E81847E77948284B1
S1130AF06578727D8F856D887A877F857A778B8E0E
S1130B00956B75597E8788708F6E80606D95817B3B
S1130B108A84757E77968582589976A05C8E7195C5
S1130B20797E8163867B8B849B7986617A559B91E0
S1130B307E718394889A569B7C96617B968E8F8C6B
S1130B4068799086768B8299747F796C818B758FA6
S1130B50629C917F66806294608C699A8474627EE0
S1130B609D926A8B93716E829882669281656E946F
S1130B70889D8E9B57909076889A758D7E86737229
S1130B80827385916D706B8D79797B7C8799707D8B
S1130B90857F8A97757C648A7483807F8F77677674
S1130BA085727C77768D8B70997D826C798992BC05
S1130BB08971857C7C6A849285757D8A529A5D856B
S1130BC0559D97837D7F92656E689E8893649C8211
S1130BD087668F76767A86787E9C716D7A65A56B4A
S1130BE0A28991486F70AF80757386918D6C8082F5
S1130BF0A0848B7B546D72A2748A7A836481797C1D
S1130C007973728098808B65A09D79686A9B9E68D1
S1130C10797B8A8C808D7799757F73867A576E7508
S1130C207E8F6FA3679F69A1659B6E936F9F6C9E78
S1130C30728F747F7C6C6B5D848C896D838C769DE4
S1130C408A896F8F8D87747F77858C8E8C6375A26C
S1130C507C866C8D68A88A91657E709993788F9A4A
S1130C609575738351837B9072896D9C6991698EAC
S1130C707A9F658B6E748253696EAA7B70918783A9
S1130C808D7E8B847E8C7760825E9E6F9387858851
S1130C9088706F7B7DAC709450A263AA74916E735C
S1130CA08566747B6D896D9E78738F808B8D5EAF46
S1130CB06880628585B57995688D67A26C7F65616A
S1130CC0A1706F5BA3A3619C5D9F8C965A73589B24
S1130CD083636366A6855A8A7A9498816F87848F22
S1130CE08E6E8C8B887A79846D8180958C665E9605
S1130CF06E9B817F7F829E80A3568C8F9B77848698
S1130D00739359A17277798C8EB3688398858B75A8
S1130D10827D8B8D618384907B8E6A7F7D718A66F0
S1130D208C8B93547B689887886D848A89A38E679B
S1130D3072747F74838B667C8C8B8C7495898476B7
S1130D4087727D7D907675887C8D6A84887963A7A7
S1130D509070877D868A73638B7A996F87608C68BD
S1130D60787F9373817D6B877A8B7D6F9B7C9F7F6C
S1130D7091609B678F72997A8676685E9C7A886F99
S1130D809F696C70758D7B8F749B7C777479738687
S1130D907D8979828E787C7D788A9671A8579B5B51
S1130DA0806EAD78796A92797A757D6B7F85786685
S1130DB078867C77756980906E95738C6085667F84
S1130DC08A807EA6956D89698072867B7E818E7A03
S1130DD0807C6B887E82926A75747682A189976D15
S1130DE09E7B886F8C9B9E588A7187769288936DC0
S1130DF0799184877D90807F846E83807E85807DD9
S1130E007A82736C87759686728A7E7E8579607B1A
S1130E10879687987198678A5D847DA26C8D708FA0
S1130E207D8A735D7B887A6B93877D5D6F927A721E
S1130E30937A896FA76F7868917E8F71A0807D5FA8
S1130E405CA58370866191875F60A773976F8D88B7
S1130E508C808F8E62877C5C4E8C809E4F8C7B9DB9
S1130E606296728479818D656B5C9B817F62926FDF
S1130E707F959D747391A85B6187749A898A76853E
S1130E8073867A9387807A84719A71908C8794722E
S1130E909777A15D9C75677F8A868E7F845E6B756C
S1130EA08E857C718B84697885A7637A87956A6B54
S1130EB07F8AAC9F58A777688C8A91648B68976502
S1130EC09F6B8F7986845C3889877D6851AF78827F
S1130ED0748D5FA1629669996D939071707E607C48
S1130EE078828C9F6A6899617A866F5D8168909731
S1130EF082719F85736E8A757C917077897A86700A
S1130F006B6E8CA5746193878791768098AE788692
S1130F10827733C19380877C9487797273848984C0
S1130F208D668882677279876D808E7081796D890C
S1130F30A27B917E82936B816F8B6B846D88758BA2
S1130F40777B82847B6B7B868966886D987C885EE0
S1130F50956E7D808386808489818585836B8F816E
S1130F60877384849078717F818180887D827A8080
S1130F707C8172827A808282847A8184837D788182
S1130F80867D77808B897E828F838186828A828622
S1130F9082837D7A7A76757B77707E777E7C7B7AA6
S1130FA0817A7F7A807A80817E8085828788808A30
S1130FB085868388848D8B8C8A929798A0A06A8B6F
S1130FC07E6A684B5468566269819C8D8C9EA0A48D
S1130FD09684937E7C736B726E59707779817D925F
S1130FE093838577817A67717274787A8091909609
S1130FF0969DA29C9C9F9FB0A6886F6A5958462EC6
S11310005F6C68858BABBFA0A09D9786615D635FB5
S113101062626B83948D9996A09F8C8579736C5BC7
S1131020605E59636C7981838C969A948F918E85D6
S11310307F7D868F8A99A0ACB8C8A9726959584433
S1131040104F74678788A4DAAF9496907E59434F03
S1131050656D6F7593B8A3A5A2979A7A5F60545291
S11310604F58717478879096978B9493837C777993
S113107081777D8D9399ABB2B3C9E0646755435BC7
S113108033025587829C9FC8E0B57A6F6961483600
S11310904A7297A6A3A9C9BCA57F5B555441435581
S11310A079868F8F908D8D7A6A6E7782827E849016
S11310B08E89838B96959AA6ACACC5D44B5D35329C
S11310C06A37086AAAAFC3AFB4C5AC5B423F424CAF
S11310D043688BC0CFB8B3C3AF7F60323C4D4E5032
S11310E07089A0AA9482807B71585C73898F8185F2
S11310F09692867E7E8E94989C9BB6BBBAD64B47BE
S1131100212D6034225FB1BCCABEB0C5A9522622CB
S11311103751597395D6E4C8B8A89A7B4922344EFE
S113112068647B8FA7B7966A716E6A58566B8D9701
S11311308E849698947F768791899292A1ADB2AF6E
S1131140C3DA3F1B442946384089C5D1B5B4B7A793
S113115067331737515A7793D7E7DEB99C907A46AD
S11311601D1441717F8C8CA9BF9C775B5C6C6356AA
S11311706A8C9FA08B8E8F8F7F6F718488888D99E6
S1131180AFB3ADADB6E4893E242446392471C3D649
S1131190C6BFB1A79F350F2D425F797FB4EDE6C47A
S11311A0988679672B1E455E828D8CA0B1AA8366D2
S11311B05B6C635A5B7599A19388918C817170788B
S11311C08488909FA3A5A5ACA6AFCD7E2F164250D0
S11311D03E294FB9CDCDB0ADBEA54C1B434E575E95
S11311E07AA2E6DEB5A59B8C5F382D3B655C7697CD
S11311F0A5ACAE937B706660575A6D7E9A938C8EC5
S113120087847C6F7283898F8E90A2A9A7AAA5B3C5
S1131210CFBE1A1B53304C193CB6BBC1AABBD8ABCA
S11312205D39325235326498D2CABECCC09B694013
S1131230443E32376398A3A1B1BA9B7F6162544E96
S113124050668F96898C9696826D7581827C8C917E
S1131250AAADA8A4B9B5B1CF6A48492E3F111FA3BE
S1131260A391B2C1CBC8815A675538273E8397A84A
S1131270BDC8CDB09D8665523731526579839BBB1D
S1131280A4918F7F644D4364717474879B958481AA
S1131290868A837E9398969EA3A0ADA6A3ADC931FA
S11312A04E513E5212418C6B8C9FB6D1A78D9385C3
S11312B060453D60686B84A5B6B2ACB1A27D745044
S11312C05658465B6E87948D9C9490806B666462DE
S11312D06D6978848087898E948B8F978F95989683
S11312E09FA09EABA8C63672714046251D74485B0C
S11312F094A6C8A1A4B9887B7B5D6852587B7F9271
S11313009397AB9495957E726C5E6C576275767FFD
S11313107F8688767C7A797971797D7B84818888E7
S1131320858C918E9297979CA19CACA5B1C63B6D80
S11313306A37481B665B43907BA0BC98BBAC909714
S1131340797376657C6471827A898485917B8683DE
S11313507D7F79797E7B747275756B6F76757A7D16
S11313608387858A88838283848480848A8C8D930E
S1131370949AA19EAAAFB8477D864F5D32613D40E5
S1131380765C809484B89996AE979890818D6B70B2
S113139071686E636D737588818E8E8C92878C777D
S11313A0716F6C64646B6F70748386888991938E9B
S11313B0908C8B888387888A86929AA0ABB8689F22
S11313C08C6C6C4A675C40644C5E78749F8B94AA06
S11313D0929C9F969D878E81747A6A6C6163726910
S11313E07C7C808C8797868686777371706E69742F
S11313F072767C7D8282868D889191909191918D77
S11314008F938D969CA892A98A6E7C685E63555DC5
S11314105B61686887748F9D8CA0999C9F8D9B8964
S11314207C8073746A6A6E6473707D7A808B7F8843
S1131430868582767B7975746C737474797684820C
S113144084908E959391968E90939597949FA19F57
S11314508B89776B5C763F69624D756A81827D9674
S113146082989A939B96968E868A7B7B726F6E6A1D
S1131470737273767F818086817F837A807D747EA8
S1131480737978757B777E7B818A888C8D91969031
S113149096919396979AA1709A85797A6D6D5A5B15
S11314A05D4F655D6E7875908B98A29BA19A989913
S11314B0878B807878716D6D6A716E71767F7F80AD
S11314C0868386817E7E76787672757477787B8162
S11314D081868A8D90919393949795999B9DA391DE
S11314E094997A7066554E4950525166697884923F
S11314F09C97A2A6A09E99918D808175726F6E6F44
S11315006D7176777A7E82848385837E7C7B79771E
S1131510797A797A7E7D7E7C7D807F8182858A8CD2
S113152090919195939192919091918E857E7C73F7
S11315306C6866626264646A727779848C908F9452
S1131540959191908A8786817E7E7E7B7A7B79785D
S1131550787977777877787979777A797C7C7E7FF0
S11315607F8082828385848689898A8B8C8D8C8D09
S11315708C8D8E8E9095948C88857B737168626156
S11315806160616B6F717B85878D95979597949159
S11315908E8C878282807D7B7C7875737171717388
S11315A072727576787B7E81828384858584848457
S11315B08383838383838787898A8E909295979C7C
S11315C09F9A8D877E726D685E57595C5C656C71FD
S11315D078858B8F969997979793908E8B85828138
S11315E07D7B7877747170727272737476777A7C9B
S11315F07E808181818282828081828180838485D0
S1131600878A8C8F91939797999DA09A8E857E74E3
S11316106B665D53565A5A646F7279858A8F989DAA
S11316209997989491908B8481807A777A77737262
S11316307371737372737677787B7C7F7F8081811B
S113164082818080808183828487898B8E91959723
S1131650999A9CA0A39A8A817B716966584E5356C5
S113166059626F7079868B929D9E9C9B9A949391FC
S11316708A85817B76777674736F6F6F73737374F7
S11316807577787C7D7F80818182818181807F8074
S1131690828486888B8E919197999C9DA0A8A09511
S11316A08482756C695D4A484F505C686F717F88AD
S11316B08D9CA9A29E9F9892939488827E7574763D
S11316C075716F6C696B7271737675757A818283CB
S11316D085818082838082827F7F8385888C9192BA
S11316E095999DA0A7AAB09C87807E716D6A554389
S11316F045494C5F74717483888DA1ABA6A4A297ED
S11317009295948A857A716A6B68686B6361677372
S11317107A81837F7D7F817F817F7A777A7C7E84E3
S1131720848485898F969CA2A8B2B6C1D5D0844BF7
S113173012132345615C5C749AADC5AF83645D622A
S1131740868F97948197989A8870595C6D8699963C
S1131750958379716D60594C4F6375888E93959517
S11317609593877D7B7072787B7D83868B98A8B3F5
S1131770BCC4D2EBD47A1501032E6A8D766F8A9598
S1131780ABAA855A50607DB0ADA89D8C8C8C7058E6
S11317904D40617F99A2A3928B81706D62625A64FD
S11317A070797E89878F9590897E7771767D858A19
S11317B0909997A3ABB4B6C1DB9E6F190121468300
S11317C09D8E7C838A97967653516082B8BBA99A82
S11317D0847F84735D4E4F61849DA49C80756B6F80
S11317E0726F6C666B7A8583837F868F9293877E14
S11317F071757F90939CA1A6B0BECDE5B5681B0220
S11318000C5084A09473818993987348455886BE7C
S1131810C7BE9D847C7C706555475D84A4ADA08261
S11318207066696F6F6F656675818D90868282863A
S113183091938A7E7476828F979E9FA7B6BED5C9F0
S11318407F3706094787989B807B7E888E755B4629
S1131850537DA1C5C5A99480776E6351486175997C
S1131860A79F937E6B6B6C6E706C696E78858C88A9
S11318708684868D908C857D7A878E959898A0A98C
S1131880B3C6D486592E09337481A690767E80839C
S11318908B674F525C8CB3C4BBA1857A716E615760
S11318A05669839FA59A8570666A7478746D6A74A4
S11318B07F8887857E80888C8E867A7780829093D5
S11318C09195999FA8ACB6D09D9D380926296B9F08
S11318D08C8D8B738381746762637E9DB2B7A79688
S11318E0867F6C604E4B5A7797A5A1938175737769
S11318F073726C7076797A7C7B82888A8D867E7925
S1131900767A81858B8F929195959598A2ADBCCB73
S11319109F894D1A274661927D757C6C87917F81E2
S1131920746B84899DA9A19D897263584D53697C08
S1131930949D9E918B7F7978797A756C69697281AF
S1131940888C89847F7978787C838A8A8F8B8F8E40
S11319508E8C8C8A8A88959BA4AAB38D786745451A
S11319605B527A7F7E8688838B7D79757B858C93A9
S113197091887F75636A6970767C7F898C928D8883
S113198082807C7B7677757C7E7A7773737A7E84AB
S11319908B898B8E8C898782817F81807D7E7F84F9
S11319A08B878A8A8D8D929390998E8B7E676E6BCE
S11319B06D7B77727E82818580817F817A7875786C
S11319C071737073797F8384838380828584848632
S11319D082838282807E7C7977797F82858B8C8BEF
S11319E08B89817E7C797878797A7C7F827F8888FC
S11319F089858787827E838486898A87858883858B
S1131A00897F7F807E7E7A7B797A7676747A78791C
S1131A107C7D7B7C7A7F7C8085828384857D7B7BD7
S1131A207A867F7F847F838181827D7C77837782BE
S1131A3074758687808880897C7B8C8D7E797F878E
S1131A407481848B867E7E85807E6E677982818AAE
S1131A50807D72767D857C807F7D877B7D7C7D8C9F
S1131A6095827F898E8C90756E73847184847E8058
S1131A70746F6C7D8381838381888D915F6F8F9F69
S1131A80697A7F98727F706A9B7B708C7F8A6166AB
S1131A90848F8A9165988C747D9494858B88816FEA
S1131AA0946D6D7C7F898A806599946D649A9B8618
S1131AB08F757775839775475BA57C86996F7C8155
S1131AC09D6B8D9B8E856C627A6E979D7C6D8B8AE7
S1131AD07F95616175967E907779778D7254A0AE0B
S1131AE085806D7E9C8F7A867B757D99B88A5E90A1
S1131AF0A181708E9B615D9E8A84718B9877548CD2
S1131B00778F9E70849A9464606C7E906471916700
S1131B107D758095667F9A8A617A98977385817AB4
S1131B209586868079777F8E8165719A81807F74AE
S1131B3081A48E69949375708C6E879C8079807E65
S1131B40A34C669A9280A096945B77849E61697395
S1131B5091776D776B96A68B747C7E7E847D638192
S1131B609A73657B869965507F91706772887E6CE5
S1131B707B8B736B808173869A897A93988B687C4C
S1131B80988591928B798393927A827183948A72E5
S1131B90878E91747B70758681817C86827766904E
S1131BA088808E807C7E7C8893926E9684797C83F8
S1131BB0867F7B807D7F847A7D6A7392766E807661
S1131BC08A9983658E8A998F747A70828172817CF6
S1131BD08D705D5EA6968B837783847C729C977CE4
S1131BE07F7A8D929C615B69868770697B89867632
S1131BF0658F81706B9A806F79847D918C718689F1
S1131C0072838B8C968F7986796C8B8587946D6FB4
S1131C10756DA092726E897A656B9180797A827DF6
S1131C208E8F698D94787F847E817C827E868A798A
S1131C307B929165797D797F76787083867F7483D2
S1131C408A7F7B6A7B8B956A78818A726F727D7ECC
S1131C506B666E8475736769968C7D797F7C767C00
S1131C6080817E7286858373878C85727C888A8462
S1131C7083868987797D8495716C7C888B78868B43
S1131C808C767B8180818272798E7E7D6C97868052
S1131C907F847A80907272737688837C8B6F7A8368
S1131CA07F7E908B876F8690817587968B847689EB
S1131CB08A837D857B7D88857E7980848973797824
S1131CC0837C8A827771949796816E7D7A77748B00
S1131CD092958C79807E797C7B8386796C787C8301
S1131CE080707187898C837E8888837C8A9A9071BE
S1131CF0727681886C7D8A858888858278738188EC
S1131D0078828888777C7986807A818374788E85D6
S1131D1081867C81747B817F8C8B808374837C86B9
S1131D2088887C73738D877F7F7A8082926C8486A7
S1131D30897D7E7279878D7976858C867E8183868E
S1131D40837B7D8386867E7D848A7D7E807D817F84
S1131D50797F848678867B8382867A8B837A7D7E7C
S1131D6081877D80867E837C8282837E7B7B877A6B
S1131D707D837F7F807F7F7F82807D807E817E7F69
S1131D80858480828183898380888A8284858B8804
S1131D908985898B857A79746E6A676D6E6F747DB7
S1131DA08284848484837E7A7C7E7C7B7F8082822E
S1131DB08384868584848383837F7F7E7D7F7C8206
S1131DC087858687868C8A898D8B9296A09EA08E25
S1131DD0736A685C474255626C75819CA5A09EA19C
S1131DE0988B7B71706C6567767C808A91989794E8
S1131DF0908E887C7470666466656B737A7E878A5D
S1131E008C8C8985837A777677767A7E828A8C8DB4
S1131E108F908D8C8A88848A84848B888D959A9AF5
S1131E20A0A4907B5F615A443D4D636D7887A6B151
S1131E30ABA4A393856D625F5D586579818C9AA884
S1131E40ACAAA09A958371615A53565F5F727E90D3
S1131E50939C9A95908679726B69676D757C83887B
S1131E608F91908F8D898782817E7E7A7B7C807F23
S1131E7085868D91929696979995948D7B74695DDC
S1131E8052565B636C7D8490979899978B80797098
S1131E906A696A717A80869297999A96908881780D
S1131EA06F6761666E717783898D908E8C867E7B79
S1131EB076716E71757B8080878A89898886838331
S1131EC07F7E7E7E7B7C7D7D818487898E8D908ED6
S1131ED08D9086868A888586877F7B76736A686913
S1131EE0696D71797E85898C8F8D8784817F7A77FE
S1131EF07A7D7E8286898C8C8A88847F7C7A736FD3
S1131F007475767A7F8284848485827F7E7C7A79F4
S1131F107B7C7D7F80848483848482838181817FB0
S1131F2080818180828685868A8E8D8A8B8F8A8A3B
S1131F308A8A887F7571706A666B6E73797F868A08
S1131F408B898A887F7C7B7878797C8285888B8D65
S1131F508B8A88857E787776757476787C7F8183A2
S1131F60848381817F7D7A7A7B7C7C7E808282837C
S1131F708384828181817E7E7F80807F8081828153
S1131F80818283838586898C8E908E908E89847AD3
S1131F9075706C66666C70787C818B8D8C8C898492
S1131FA07F7A767575767B8184888D8D8F8D898314
S1131FB0807D76757473777B7C7F83858586848248
S1131FC0807D7C7B7A797B7C7E8183848586858514
S1131FD08381827F7E7E7D7D7E7F7F8082828384FB
S1131FE08383818181817F80838285898C8C8C8BA2
S1131FF0837B78736C696A6E737A82898F8F92910E
S11320008C847C7774717072777D82888C8F8F8CCE
S11320108A867D7B7874727477797D8284878685DD
S11320208683807D7B7B7A7B7C7F828284868584A9
S1132030848381807F7F7F7E7E7F7F80818080829A
S1132040828084828180817F7F818182848485886B
S11320508884827F7A7873727475787E84878B8C97
S11320608B8B86807D79767577797C8085898B8A60
S11320708988867F7C7A7874767A7C7C818485856D
S1132080868583817D7D7C7C7B7C7F818284848545
S1132090828282817F7F7E7E7E7F80818181818238
S11320A08082818080807F7E80817F81838484851B
S11320B08585827F7E7C787776777A7C7F83878834
S11320C088898683807D7B7978797B7E8084878606
S11320D087878482807D7C7A797A7C7E8081838301
S11320E0838382817F7E7E7E7D7D7F7F80818282ED
S11320F081828281807F7F80807F7F8080808180D9
S113210081808080808080808180808081808080C8
S11321108081818181817F807F7F7E7E7E7F7F80C1
S113212081828282828281817F7E7E7E7D7E7F7FAC
S11321308080828181818081807F7F7E7F7F7F7F9D
S11321408080808181818080807F807F808080808A
S1132150808081818081807F808080807F8080807A
S113216080818080818180817F8080808080808068
S113217080808080807F80808080808180807F805C
S113218080807E7F808081818180808081807F7F4C
S1132190807F7F808081818180807F80807F807F3D
S11321A0807F808080817F808080807F7F8080802E
S11321B07F7F8080808080808081807F7F7F807F20
S11321C0808180818080808080807F7F80807F800C
S11321D0807F8080807F81818080808081808080FA
S11321E08080807F81817F7F8080808080808180EB
S11321F08080818080818080807F808080808080DA
S1132200817F8081807F80808080818081818080C7
S113221080808081808080808080808080808180B8
S11322207F807F7F7F8080808080808080808080AE
S11322308180808080817F81808080808080808098
S1132240808081807F808180808080808080808089
S113225080808180807F80807F8080808180818079
S113226080807F7F7F7F7F8080818180808180806C
S113227080807F80807F807F81808081818080805A
S11322808080807F7F808081808080808080807F4C
S11322908080808080808080807F7F807F7F80803E
S11322A07F818181808080807F8081808080808028
S11322B0808080807F807F81807F81808181808118
S11322C08180807F8080808081807F818181808007
S11322D0807F80817F8080808080807F817F8080FC
S11322E0808080808080808080807F818080807FEB
S11322F0817F80807F7F80818081807F7F808180DB
S1132300808080807F808081808080807F808080CA
S11323108080818180807F808080807F807F7F80BB
S113232080808080818180808080808080808081A6
S11323308080808080808180818080818180808095
S11323408080808080808081808080807F80808089
S1132350808080818080807F808080818081808077
S1132360808080808080808180807F808080808069
S1132370808080808080808080808081807F807F5A
S1132380807F808180808080808080808080808049
S113239080808080808080808080807F808080803A
S11323A08080807F81808180807F81808180808027
S11323B080808080807F80808180808080807F801A
S11323C08080818080808080808081808080808007
S11323D07F8080808081807F8080808080808080FA
S11323E08081808080807F808080808080808080E9
S11323F080808080807F80807F80808080808081DA
S11324008080808080808080807F808080808080C9
S1132410808180808080807F8080818080807F80B8
S11324208080818081808181807F808080808080A5
S113243080808080807F8081807F818080807F7F9A
S1132440807F80817F7F8080807F8080808080808B
S1132450807F808080808080808081808180808077
S11324607F80808080808080808080818080808068
S113247080807F808080807F80808080817F807F5B
S1132480807F80807F8080807F80807F808080804C
S11324907F80808080808080818180818080808036
S11324A080807F8080807F7F8180807F808080802B
S11324B080817F7F8080818080807F818080808018
S11324C08081808080808080808080807F80818007
S11324D080808180808080807F80808080807F80F9
S11324E0808180807F807F8080807F8081808080E9
S11324F080807F807F808080808080808180807FDA
S1132500807F808080808081808080807F808180C7
S113251081808080808080808080807F807F8080B8
S113252080808080808080818080808180808180A4
S1132530817F80808080808080818081807F808096
S113254080808080817F80808081808080807F7F88
S11325508080817F808181818080808080817F8173
S11325608080808180818180808080808180808063
S11325708080808080808080807F80808080807F59
S1132580808080808180808080818081807F7F8145
S11325908080808080807F808080807F8080808039
S11325A08181808080818080807F807F8080808026
S11325B0808080807F807F807F8080808081808019
S11325C081807F8080808080807F80808080807F09
S11325D081808080808080808080808080808180F5
S11325E07F807F8080808080808080808080807FEA
S11325F080808080808080807F80808080808080D8
S11326007F808080808080818080808080808081C5
S113261080817F80818080808180807F80818080B4
S113262080817F80808080808080808081808080A5
S1132630807F80807F808080808080808080808098
S113264080807F80818080807F7F80818081808086
S113265080807F807F817F80817F7F808080808079
S113266080807F80807F7F80808080807F8080806A
S11326708080807F81818080808081808080807F55
S113268080808080807F80808081817F8080808145
S11326908080817F81808080808080817F7F808036
S11326A08080808180808080808080808080808025
S11326B0807F8080807F7F808080808081807F8019
S11326C080808180808180808180807F8080807F05
S11326D080818080807F80808080808081808080F5
S11326E0808080808080807F8080808080808080E7
S11326F0808080807F807F808080808080808081D7
S11327008080807F808080818080808180808080C4
S113271081807F80807F8080817F818180808080B4
S1132720818080808081808080808080807F8080A4
S1132730808081807F808080808080808080808194
S113274080807F8181808080808081808080808083
S11327508180808080808181807F80807F80818073
S113276080808080808080808080808180807F8065
S1132770808081818080807F8081817F8080808053
S11327808081808081818080808081808080808041
S1132790807F80818080807F7F7F80818180807F37
S11327A08080808080808180808080807F80808025
S11327B080808180808081807F808081817F807F14
S11327C080807F80808080807F8080818080817F06
S11327D08180808180818080807F808080808180F2
S11327E0818080807F8080807F80808081808080E5
S11327F0807F80808081817F8080808080808080D5
S11328007F808080807F8080817F80807F808081C6
S11328107F80808080807F808080808080808080B6
S11328208081808080807F818080807F807F8080A5
S11328308080808081807F80807F80818080808094
S11328408080817F80818080807F80817F807F8085
S11328507F7F7F8080808180808080808180807F76
S11328608080808080808181818080808080818060
S1132870808080808081807F808080808080807F55
S11328808080818080818080808181808080808040
S11328907F807F8080808081807F8080807F808037
S11328A0808080807F8080817F808080807F808026
S11328B08080807F808080807F8080818080807F16
S11328C0808080808080807F80807F808081817F05
S11328D080808180808080808080808080808080F3
S11328E080808080808080808080808080808080E4
S11328F0817F8080808080818080818080808080D2
S113290080808080808181818080808080808080C0
S113291080808180807F8080808080807F808180B3
S113292080807F80808081808080807F807F8080A5
S113293081807F8080808080807F80808081808093
S11329407F7F808080808180808180808080808083
S11329507F8180808080808080807F808080808074
S11329608080808080808080808080808080808162
S11329708080807F7F80808080807F808080807F57
S113298080807F808080808080808080807F808045
S113299080807F8080808181818081808080808030
S11329A07F808080807F8081818080808080807F24
S11329B0807F808080808080808080818080808013
S11329C08080808080808080808081807F80808003
S11329D08080808180808080807F80807F808080F4
S11329E08080808080807F80808080808080807FE5
S11329F080808080808080808080808080808080D3
S1132A007F7F80807F818080808080807F80807FC6
S1132A107F8081807F8080808080808080808080B3
S1132A20808080808080807F80807F8080817F81A3
S1132A308080807F80808080807F80808180808093
S1132A408080808080808081808080808080808081
S1132A508080808080807F80808080808080808073
S1132A60808080808080818080808080807F817F62
S1132A7080807F808080808080807F80817F808054
S1132A80807F8080807F8081808180808180808041
S1132A908080817F81817F7F808080808080808032
S1132AA08080817F80818080808080808180807F21
S1132AB0808080808080807F8080808080807F8014
S1132AC08080808180808080808080807F80818001
S1132AD080808080808080808080808080808080F2
S1132AE08180808080817F818080808080808080E0
S1132AF0808081807F8081808080808080808080D1
S1132B0080808080808081808080808081808080BF
S1132B107F807F80808080808081808080808080B2
S1132B20808080808180807F8080808080808080A1
S1132B308180807F7F808081808080808080808091
S1132B40807F80807F807F80807F80808080808184
S1132B5080808080818080807F7F80808080808072
S1132B60808080807F80808180808180808180815E
S1132B70808080808080808080807F81818180804F
S1132B80807F80817F8080808080807F817F808043
S1132B90808080808080808080807F808080808032
S1132BA08080807F80808080807F807F7F80818024
S1132BB0818080807F808081808080808080808010
S1132BC080807F80808080808080807F807F7F8005
S1132BD080808080818180808080808081808081ED
S1132BE080808080808081808180808081808080DE
S1132BF080808180808080808080808080808080D0
S1132C00808080818080807F8080808181818080BD
S1132C1080808080808080817F807F8080808080B1
S1132C20808080808080808080808081807F807FA1
S1132C30807F8081808080808080808080807F8091
S1132C40808081808080808080807F7F8080808081
S1132C508080807F81808180807F8180818081806D
S1132C6080808080807F81808180808080807F8060
S1132C70807F81808080808080808180808080804F
S1132C807F8080808081808180808080808080803F
S1132C90818080818080808180807F80808080802E
S1132CA080808080807F80807F8080808080808121
S1132CB0807F80807F808080807F80808080808013
S1132CC0808180808080807F8080818080807F8000
S1132CD0808081808180818180808080807F8080ED
S1132CE081808080818181808180808080807F7FDD
S1132CF0807F80817F7F8080807F808080808080D3
S1132D00807F8080808080808080808081808080BF
S1132D107F808080808081808080808180808080AE
S1132D2080807F808080807F80808080807F8080A2
S1132D308080808080808081807F807F8080807F91
S1132D407F8080808080808081818081808080807D
S1132D5080807F8080807F7F8080807F8080808073
S1132D6080817F7F8080818080807F81808080805F
S1132D708081808080808080808180808081807F4D
S1132D807F818080808081817F807F8080807F8040
S1132D90808180807F807F8080807F808180808030
S1132DA0808080807F808080808080808180807F20
S1132DB0807F808080808081808080807F8081800F
S1132DC081808080808080808080807F80808080FF
S1132DD07F8080807F81807F8080808180808080F0
S1132DE0817F80808080808080818081807F8080DE
S1132DF080808080807F80808181808080807F7FD0
S1132E008080817F808081818080818080817F81BA
S1132E108080808180808180807F8081807F8080AD
S1132E2080818080808080817F807F808080807F9F
S1132E30808080808180808080818081807F80818B
S1132E408080808080807F808080807F8080808080
S1132E508181808080818080807F807F808080806D
S1132E60808080807F807F807F8080808080807F62
S1132E7080808080808181807F8080808080807F4E
S1132E80818080808080808080808080808081803C
S1132E9080807F8080808080808080808080807F30
S1132EA080808080808080807F808080808080801F
S1132EB07F8080808080808180808080808080800E
S1132EC08080818080808180807F807F80818080FD
S1132ED080817F80808080808080808081808080ED
S1132EE0807F80807F8080808080808080808080E0
S1132EF080807F80818080807F7F808180818080CE
S1132F0080807F807F817F80817F7F7F7F808180C1
S1132F108080808081808080808081807F808080AC
S1132F208080807F81818080808081808080807F9C
S1132F307F807F80807F80808081817F808081818D
S1132F408080817F8180808011241FBECFEFD4E0F8
S1132F50DEBFCDBF21E0A0E0B1E001C01D92A230F0
S1132F60B207E1F70E94E6170C9463180C94000072
S1132F701F920F920FB60F9211248F93809101012B
S1132F808F5F809301018F910F900FBE0F901F9060
S1132F901895109285001092840083EF91E090932D
S1132FA087008093860082EE8093800089E180937D
S1132FB08100EFE6F0E0808181608083229A8AEFCD
S1132FC090E090938B0080938A0008950E94C91723
S1132FD0789421E030E0C0E0D0E00F2EF3E1BF2E82
S1132FE0F02D0F2EFAE0EF2EF12CF02DC12CD12C68
S1132FF00AE810E099249394A12C04C0292D3A2DB9
S1133000CC2DDD2DFE01E859FF4F449150E040588E
S11330105109B49EC001B59E900D1124B7010E94C0
S11330203B18AB0146505F4F1216130684F48C2DE7
S11330309D2D70910101609100017617D1F360918B
S113304001016093000101968217930791F7809123
S1133050010180930001F801518340832196C03E11
S1133060FEE2DF0778F22F5F3F4F2430310534F65C
S1133070CC2DDD2DC7CF97FB072E16F4009407D077
S113308077FD09D00E944F1807FC05D03EF49095B7
S113309081959F4F0895709561957F4F0895AA1B60
S11330A0BB1B51E107C0AA1FBB1FA617B70710F02F
S11330B0A61BB70B881F991F5A95A9F78095909561
S10D30C0BC01CD010895F894FFCF80
S9030000FC
